{
  "_format": "hh-sol-artifact-1",
  "contractName": "GroupTokenDistributionDecentralized",
  "sourceName": "contracts/GroupTokenDistributionDecentralized.sol",
  "abi": [
    {
      "inputs": [
        {
          "internalType": "address",
          "name": "_usdt",
          "type": "address"
        },
        {
          "internalType": "address",
          "name": "_weth",
          "type": "address"
        },
        {
          "internalType": "uint256",
          "name": "_interval",
          "type": "uint256"
        }
      ],
      "stateMutability": "nonpayable",
      "type": "constructor"
    },
    {
      "inputs": [
        {
          "internalType": "address",
          "name": "owner",
          "type": "address"
        }
      ],
      "name": "OwnableInvalidOwner",
      "type": "error"
    },
    {
      "inputs": [
        {
          "internalType": "address",
          "name": "account",
          "type": "address"
        }
      ],
      "name": "OwnableUnauthorizedAccount",
      "type": "error"
    },
    {
      "inputs": [],
      "name": "ReentrancyGuardReentrantCall",
      "type": "error"
    },
    {
      "inputs": [
        {
          "internalType": "address",
          "name": "token",
          "type": "address"
        }
      ],
      "name": "SafeERC20FailedOperation",
      "type": "error"
    },
    {
      "anonymous": false,
      "inputs": [
        {
          "indexed": true,
          "internalType": "address",
          "name": "wallet",
          "type": "address"
        },
        {
          "indexed": false,
          "internalType": "uint256",
          "name": "share",
          "type": "uint256"
        }
      ],
      "name": "BeneficiaryAdded",
      "type": "event"
    },
    {
      "anonymous": false,
      "inputs": [
        {
          "indexed": true,
          "internalType": "address",
          "name": "wallet",
          "type": "address"
        },
        {
          "indexed": false,
          "internalType": "uint256",
          "name": "oldShare",
          "type": "uint256"
        }
      ],
      "name": "BeneficiaryRemoved",
      "type": "event"
    },
    {
      "anonymous": false,
      "inputs": [
        {
          "indexed": true,
          "internalType": "address",
          "name": "wallet",
          "type": "address"
        },
        {
          "indexed": false,
          "internalType": "uint256",
          "name": "oldShare",
          "type": "uint256"
        },
        {
          "indexed": false,
          "internalType": "uint256",
          "name": "newShare",
          "type": "uint256"
        }
      ],
      "name": "BeneficiaryUpdated",
      "type": "event"
    },
    {
      "anonymous": false,
      "inputs": [],
      "name": "ContractLocked",
      "type": "event"
    },
    {
      "anonymous": false,
      "inputs": [
        {
          "indexed": true,
          "internalType": "address",
          "name": "wallet",
          "type": "address"
        },
        {
          "indexed": true,
          "internalType": "address",
          "name": "token",
          "type": "address"
        },
        {
          "indexed": false,
          "internalType": "uint256",
          "name": "amount",
          "type": "uint256"
        }
      ],
      "name": "FundsDistributed",
      "type": "event"
    },
    {
      "anonymous": false,
      "inputs": [
        {
          "indexed": false,
          "internalType": "uint256",
          "name": "newInterval",
          "type": "uint256"
        }
      ],
      "name": "IntervalChanged",
      "type": "event"
    },
    {
      "anonymous": false,
      "inputs": [
        {
          "indexed": true,
          "internalType": "address",
          "name": "previousOwner",
          "type": "address"
        },
        {
          "indexed": true,
          "internalType": "address",
          "name": "newOwner",
          "type": "address"
        }
      ],
      "name": "OwnershipTransferred",
      "type": "event"
    },
    {
      "anonymous": false,
      "inputs": [
        {
          "indexed": false,
          "internalType": "bool",
          "name": "paused",
          "type": "bool"
        }
      ],
      "name": "Paused",
      "type": "event"
    },
    {
      "inputs": [
        {
          "internalType": "address",
          "name": "_wallet",
          "type": "address"
        },
        {
          "internalType": "uint256",
          "name": "_share",
          "type": "uint256"
        }
      ],
      "name": "addBeneficiary",
      "outputs": [],
      "stateMutability": "nonpayable",
      "type": "function"
    },
    {
      "inputs": [],
      "name": "beneficiariesCount",
      "outputs": [
        {
          "internalType": "uint256",
          "name": "",
          "type": "uint256"
        }
      ],
      "stateMutability": "view",
      "type": "function"
    },
    {
      "inputs": [
        {
          "internalType": "address",
          "name": "userAddr",
          "type": "address"
        }
      ],
      "name": "distributeToUser",
      "outputs": [],
      "stateMutability": "nonpayable",
      "type": "function"
    },
    {
      "inputs": [],
      "name": "distributeUSDT",
      "outputs": [],
      "stateMutability": "nonpayable",
      "type": "function"
    },
    {
      "inputs": [],
      "name": "distributeWETH",
      "outputs": [],
      "stateMutability": "nonpayable",
      "type": "function"
    },
    {
      "inputs": [],
      "name": "distributionInterval",
      "outputs": [
        {
          "internalType": "uint256",
          "name": "",
          "type": "uint256"
        }
      ],
      "stateMutability": "view",
      "type": "function"
    },
    {
      "inputs": [
        {
          "internalType": "address",
          "name": "wallet",
          "type": "address"
        }
      ],
      "name": "getBeneficiary",
      "outputs": [
        {
          "internalType": "uint256",
          "name": "share",
          "type": "uint256"
        },
        {
          "internalType": "uint256",
          "name": "lastClaimUSDT",
          "type": "uint256"
        },
        {
          "internalType": "uint256",
          "name": "lastClaimWETH",
          "type": "uint256"
        },
        {
          "internalType": "bool",
          "name": "exists",
          "type": "bool"
        }
      ],
      "stateMutability": "view",
      "type": "function"
    },
    {
      "inputs": [
        {
          "internalType": "uint256",
          "name": "index",
          "type": "uint256"
        }
      ],
      "name": "getBeneficiaryByIndex",
      "outputs": [
        {
          "internalType": "address",
          "name": "wallet",
          "type": "address"
        },
        {
          "internalType": "uint256",
          "name": "share",
          "type": "uint256"
        },
        {
          "internalType": "uint256",
          "name": "lastClaimUSDT",
          "type": "uint256"
        },
        {
          "internalType": "uint256",
          "name": "lastClaimWETH",
          "type": "uint256"
        }
      ],
      "stateMutability": "view",
      "type": "function"
    },
    {
      "inputs": [],
      "name": "isLocked",
      "outputs": [
        {
          "internalType": "bool",
          "name": "",
          "type": "bool"
        }
      ],
      "stateMutability": "view",
      "type": "function"
    },
    {
      "inputs": [],
      "name": "isPaused",
      "outputs": [
        {
          "internalType": "bool",
          "name": "",
          "type": "bool"
        }
      ],
      "stateMutability": "view",
      "type": "function"
    },
    {
      "inputs": [
        {
          "internalType": "bool",
          "name": "requireFull10000",
          "type": "bool"
        }
      ],
      "name": "lockContract",
      "outputs": [],
      "stateMutability": "nonpayable",
      "type": "function"
    },
    {
      "inputs": [],
      "name": "owner",
      "outputs": [
        {
          "internalType": "address",
          "name": "",
          "type": "address"
        }
      ],
      "stateMutability": "view",
      "type": "function"
    },
    {
      "inputs": [
        {
          "internalType": "address",
          "name": "_wallet",
          "type": "address"
        }
      ],
      "name": "removeBeneficiary",
      "outputs": [],
      "stateMutability": "nonpayable",
      "type": "function"
    },
    {
      "inputs": [],
      "name": "renounceOwnership",
      "outputs": [],
      "stateMutability": "nonpayable",
      "type": "function"
    },
    {
      "inputs": [
        {
          "internalType": "uint256",
          "name": "_interval",
          "type": "uint256"
        }
      ],
      "name": "setDistributionInterval",
      "outputs": [],
      "stateMutability": "nonpayable",
      "type": "function"
    },
    {
      "inputs": [
        {
          "internalType": "bool",
          "name": "_paused",
          "type": "bool"
        }
      ],
      "name": "setPaused",
      "outputs": [],
      "stateMutability": "nonpayable",
      "type": "function"
    },
    {
      "inputs": [],
      "name": "totalShares",
      "outputs": [
        {
          "internalType": "uint256",
          "name": "",
          "type": "uint256"
        }
      ],
      "stateMutability": "view",
      "type": "function"
    },
    {
      "inputs": [
        {
          "internalType": "address",
          "name": "newOwner",
          "type": "address"
        }
      ],
      "name": "transferOwnership",
      "outputs": [],
      "stateMutability": "nonpayable",
      "type": "function"
    },
    {
      "inputs": [
        {
          "internalType": "address",
          "name": "_wallet",
          "type": "address"
        },
        {
          "internalType": "uint256",
          "name": "_share",
          "type": "uint256"
        }
      ],
      "name": "updateShare",
      "outputs": [],
      "stateMutability": "nonpayable",
      "type": "function"
    },
    {
      "inputs": [],
      "name": "usdt",
      "outputs": [
        {
          "internalType": "contract IERC20",
          "name": "",
          "type": "address"
        }
      ],
      "stateMutability": "view",
      "type": "function"
    },
    {
      "inputs": [],
      "name": "weth",
      "outputs": [
        {
          "internalType": "contract IERC20",
          "name": "",
          "type": "address"
        }
      ],
      "stateMutability": "view",
      "type": "function"
    }
  ],
  "bytecode": "0x60c060405234801561001057600080fd5b50604051612dd2380380612dd28339818101604052810190610032919061037c565b33600073ffffffffffffffffffffffffffffffffffffffff168173ffffffffffffffffffffffffffffffffffffffff16036100a55760006040517f1e4fbdf700000000000000000000000000000000000000000000000000000000815260040161009c91906103de565b60405180910390fd5b6100b48161021f60201b60201c565b5060018081905550600073ffffffffffffffffffffffffffffffffffffffff168373ffffffffffffffffffffffffffffffffffffffff16141580156101265750600073ffffffffffffffffffffffffffffffffffffffff168273ffffffffffffffffffffffffffffffffffffffff1614155b610165576040517f08c379a000000000000000000000000000000000000000000000000000000000815260040161015c90610456565b60405180910390fd5b600081116101a8576040517f08c379a000000000000000000000000000000000000000000000000000000000815260040161019f906104c2565b60405180910390fd5b8273ffffffffffffffffffffffffffffffffffffffff1660808173ffffffffffffffffffffffffffffffffffffffff16815250508173ffffffffffffffffffffffffffffffffffffffff1660a08173ffffffffffffffffffffffffffffffffffffffff1681525050806005819055505050506104e2565b60008060009054906101000a900473ffffffffffffffffffffffffffffffffffffffff169050816000806101000a81548173ffffffffffffffffffffffffffffffffffffffff021916908373ffffffffffffffffffffffffffffffffffffffff1602179055508173ffffffffffffffffffffffffffffffffffffffff168173ffffffffffffffffffffffffffffffffffffffff167f8be0079c531659141344cd1fd0a4f28419497f9722a3daafe3b4186f6b6457e060405160405180910390a35050565b600080fd5b600073ffffffffffffffffffffffffffffffffffffffff82169050919050565b6000610313826102e8565b9050919050565b61032381610308565b811461032e57600080fd5b50565b6000815190506103408161031a565b92915050565b6000819050919050565b61035981610346565b811461036457600080fd5b50565b60008151905061037681610350565b92915050565b600080600060608486031215610395576103946102e3565b5b60006103a386828701610331565b93505060206103b486828701610331565b92505060406103c586828701610367565b9150509250925092565b6103d881610308565b82525050565b60006020820190506103f360008301846103cf565b92915050565b600082825260208201905092915050565b7f496e76616c696420746f6b656e00000000000000000000000000000000000000600082015250565b6000610440600d836103f9565b915061044b8261040a565b602082019050919050565b6000602082019050818103600083015261046f81610433565b9050919050565b7f496e76616c696420696e74657276616c00000000000000000000000000000000600082015250565b60006104ac6010836103f9565b91506104b782610476565b602082019050919050565b600060208201905081810360008301526104db8161049f565b9050919050565b60805160a0516128af610523600039600081816104680152818161121e015261142d01526000818161043e01528181610cb201526111e801526128af6000f3fe608060405234801561001057600080fd5b50600436106101375760003560e01c80637a16a49e116100b8578063a4e2d6341161007c578063a4e2d634146102df578063b187bd26146102fd578063b36d46f81461031b578063e2380ff414610337578063f2fde38b1461036a578063fee957801461038657610137565b80637a16a49e146102635780637c61fd471461027f578063897cceee146102895780638da5cb5b146102a557806396074e70146102c357610137565b806359633a1c116100ff57806359633a1c146101e55780635f7062ac146102015780636e616a4c1461021d57806371201a0e1461023b578063715018a61461025957610137565b806316c38b3c1461013c5780632f48ab7d146101585780633a98ef39146101765780633fc8cef314610194578063505a1b31146101b2575b600080fd5b61015660048036038101906101519190611ca0565b610390565b005b61016061043c565b60405161016d9190611d4c565b60405180910390f35b61017e610460565b60405161018b9190611d80565b60405180910390f35b61019c610466565b6040516101a99190611d4c565b60405180910390f35b6101cc60048036038101906101c79190611dd9565b61048a565b6040516101dc9493929190611e15565b60405180910390f35b6101ff60048036038101906101fa9190611dd9565b610504565b005b61021b60048036038101906102169190611e86565b610892565b005b610225610b52565b6040516102329190611d80565b60405180910390f35b610243610b5f565b6040516102509190611d80565b60405180910390f35b610261610b65565b005b61027d60048036038101906102789190611ec6565b610b79565b005b610287610c55565b005b6102a3600480360381019061029e9190611ca0565b610ced565b005b6102ad610ddc565b6040516102ba9190611f02565b60405180910390f35b6102dd60048036038101906102d89190611e86565b610e05565b005b6102e7611165565b6040516102f49190611f1d565b60405180910390f35b610305611178565b6040516103129190611f1d565b60405180910390f35b61033560048036038101906103309190611dd9565b61118b565b005b610351600480360381019061034c9190611ec6565b611259565b6040516103619493929190611f38565b60405180910390f35b610384600480360381019061037f9190611dd9565b61134a565b005b61038e6113d0565b005b610398611467565b600660019054906101000a900460ff16156103e8576040517f08c379a00000000000000000000000000000000000000000000000000000000081526004016103df90611fda565b60405180910390fd5b80600660006101000a81548160ff0219169083151502179055507f0e2fb031ee032dc02d8011dc50b816eb450cf856abd8261680dac74f72165bd2816040516104319190611f1d565b60405180910390a150565b7f000000000000000000000000000000000000000000000000000000000000000081565b60045481565b7f000000000000000000000000000000000000000000000000000000000000000081565b6000806000806000600360008773ffffffffffffffffffffffffffffffffffffffff1673ffffffffffffffffffffffffffffffffffffffff16815260200190815260200160002090508060000154816001015482600201548360030160009054906101000a900460ff169450945094509450509193509193565b61050c611467565b600660019054906101000a900460ff161561055c576040517f08c379a000000000000000000000000000000000000000000000000000000000815260040161055390611fda565b60405180910390fd5b600360008273ffffffffffffffffffffffffffffffffffffffff1673ffffffffffffffffffffffffffffffffffffffff16815260200190815260200160002060030160009054906101000a900460ff166105eb576040517f08c379a00000000000000000000000000000000000000000000000000000000081526004016105e290612046565b60405180910390fd5b6000600360008373ffffffffffffffffffffffffffffffffffffffff1673ffffffffffffffffffffffffffffffffffffffff16815260200190815260200160002060000154905080600460008282546106449190612095565b92505081905550600360008373ffffffffffffffffffffffffffffffffffffffff1673ffffffffffffffffffffffffffffffffffffffff168152602001908152602001600020600080820160009055600182016000905560028201600090556003820160006101000a81549060ff0219169055505060005b60028054905081101561083f578273ffffffffffffffffffffffffffffffffffffffff16600282815481106106f4576106f36120c9565b5b9060005260206000200160009054906101000a900473ffffffffffffffffffffffffffffffffffffffff1673ffffffffffffffffffffffffffffffffffffffff1603610832576002600160028054905061074e9190612095565b8154811061075f5761075e6120c9565b5b9060005260206000200160009054906101000a900473ffffffffffffffffffffffffffffffffffffffff166002828154811061079e5761079d6120c9565b5b9060005260206000200160006101000a81548173ffffffffffffffffffffffffffffffffffffffff021916908373ffffffffffffffffffffffffffffffffffffffff16021790555060028054806107f8576107f76120f8565b5b6001900381819060005260206000200160006101000a81549073ffffffffffffffffffffffffffffffffffffffff0219169055905561083f565b80806001019150506106bc565b508173ffffffffffffffffffffffffffffffffffffffff167f4eba15b1481ac9c456ea6075869b280f4f84c5b462cf7bc01868dd40119ec065826040516108869190611d80565b60405180910390a25050565b61089a611467565b600660019054906101000a900460ff16156108ea576040517f08c379a00000000000000000000000000000000000000000000000000000000081526004016108e190611fda565b60405180910390fd5b600360008373ffffffffffffffffffffffffffffffffffffffff1673ffffffffffffffffffffffffffffffffffffffff16815260200190815260200160002060030160009054906101000a900460ff16610979576040517f08c379a000000000000000000000000000000000000000000000000000000000815260040161097090612046565b60405180910390fd5b600081116109bc576040517f08c379a00000000000000000000000000000000000000000000000000000000081526004016109b390612173565b60405180910390fd5b6000600360008473ffffffffffffffffffffffffffffffffffffffff1673ffffffffffffffffffffffffffffffffffffffff16815260200190815260200160002060000154905080821115610a91576127108183610a1a9190612095565b600454610a279190612193565b1115610a68576040517f08c379a0000000000000000000000000000000000000000000000000000000008152600401610a5f90612213565b60405180910390fd5b8082610a749190612095565b60046000828254610a859190612193565b92505081905550610ab6565b8181610a9d9190612095565b60046000828254610aae9190612095565b925050819055505b81600360008573ffffffffffffffffffffffffffffffffffffffff1673ffffffffffffffffffffffffffffffffffffffff168152602001908152602001600020600001819055508273ffffffffffffffffffffffffffffffffffffffff167f9d45e2aef20053093589f016fb8deae1cd7bb218eefd02eb5f38ccf22512c8dd8284604051610b45929190612233565b60405180910390a2505050565b6000600280549050905090565b60055481565b610b6d611467565b610b7760006114ee565b565b610b81611467565b600660019054906101000a900460ff1615610bd1576040517f08c379a0000000000000000000000000000000000000000000000000000000008152600401610bc890611fda565b60405180910390fd5b60008111610c14576040517f08c379a0000000000000000000000000000000000000000000000000000000008152600401610c0b906122a8565b60405180910390fd5b806005819055507f7e543093b441bbc813872093374f5f85e6dcade4e8be33b6ed54d0b97e56214981604051610c4a9190611d80565b60405180910390a150565b600660009054906101000a900460ff1615610ca5576040517f08c379a0000000000000000000000000000000000000000000000000000000008152600401610c9c90612314565b60405180910390fd5b610cad6115b2565b610ce37f0000000000000000000000000000000000000000000000000000000000000000600160006002805490506000806115f8565b610ceb611a01565b565b610cf5611467565b600660019054906101000a900460ff1615610d45576040517f08c379a0000000000000000000000000000000000000000000000000000000008152600401610d3c90611fda565b60405180910390fd5b8015610d925761271060045414610d91576040517f08c379a0000000000000000000000000000000000000000000000000000000008152600401610d8890612380565b60405180910390fd5b5b6001600660016101000a81548160ff0219169083151502179055507f6f5ffb7e2a6656882126927a79e460ca27ab657927d593522b90dc28229f7dbc60405160405180910390a150565b60008060009054906101000a900473ffffffffffffffffffffffffffffffffffffffff16905090565b610e0d611467565b600660019054906101000a900460ff1615610e5d576040517f08c379a0000000000000000000000000000000000000000000000000000000008152600401610e5490611fda565b60405180910390fd5b600073ffffffffffffffffffffffffffffffffffffffff168273ffffffffffffffffffffffffffffffffffffffff1603610ecc576040517f08c379a0000000000000000000000000000000000000000000000000000000008152600401610ec3906123ec565b60405180910390fd5b60008111610f0f576040517f08c379a0000000000000000000000000000000000000000000000000000000008152600401610f0690612173565b60405180910390fd5b61271081600454610f209190612193565b1115610f61576040517f08c379a0000000000000000000000000000000000000000000000000000000008152600401610f5890612213565b60405180910390fd5b600360008373ffffffffffffffffffffffffffffffffffffffff1673ffffffffffffffffffffffffffffffffffffffff16815260200190815260200160002060030160009054906101000a900460ff1615610ff1576040517f08c379a0000000000000000000000000000000000000000000000000000000008152600401610fe890612458565b60405180910390fd5b6040518060800160405280828152602001600081526020016000815260200160011515815250600360008473ffffffffffffffffffffffffffffffffffffffff1673ffffffffffffffffffffffffffffffffffffffff16815260200190815260200160002060008201518160000155602082015181600101556040820151816002015560608201518160030160006101000a81548160ff0219169083151502179055509050506002829080600181540180825580915050600190039060005260206000200160009091909190916101000a81548173ffffffffffffffffffffffffffffffffffffffff021916908373ffffffffffffffffffffffffffffffffffffffff160217905550806004600082825461110c9190612193565b925050819055508173ffffffffffffffffffffffffffffffffffffffff167fe6b83177f11971ba30369bb38b914ffba97d5969a3c857b286fa8fdbb150b3ba826040516111599190611d80565b60405180910390a25050565b600660019054906101000a900460ff1681565b600660009054906101000a900460ff1681565b6111936115b2565b600660009054906101000a900460ff16156111e3576040517f08c379a00000000000000000000000000000000000000000000000000000000081526004016111da90612314565b60405180910390fd5b6112197f0000000000000000000000000000000000000000000000000000000000000000600160006002805490506001866115f8565b61124e7f00000000000000000000000000000000000000000000000000000000000000006000806002805490506001866115f8565b611256611a01565b50565b60008060008060028054905085106112a6576040517f08c379a000000000000000000000000000000000000000000000000000000000815260040161129d906124c4565b60405180910390fd5b600285815481106112ba576112b96120c9565b5b9060005260206000200160009054906101000a900473ffffffffffffffffffffffffffffffffffffffff1693506000600360008673ffffffffffffffffffffffffffffffffffffffff1673ffffffffffffffffffffffffffffffffffffffff1681526020019081526020016000209050848160000154826001015483600201549450945094509450509193509193565b611352611467565b600073ffffffffffffffffffffffffffffffffffffffff168173ffffffffffffffffffffffffffffffffffffffff16036113c45760006040517f1e4fbdf70000000000000000000000000000000000000000000000000000000081526004016113bb9190611f02565b60405180910390fd5b6113cd816114ee565b50565b600660009054906101000a900460ff1615611420576040517f08c379a000000000000000000000000000000000000000000000000000000000815260040161141790612314565b60405180910390fd5b6114286115b2565b61145d7f00000000000000000000000000000000000000000000000000000000000000006000806002805490506000806115f8565b611465611a01565b565b61146f611a0a565b73ffffffffffffffffffffffffffffffffffffffff1661148d610ddc565b73ffffffffffffffffffffffffffffffffffffffff16146114ec576114b0611a0a565b6040517f118cdaa70000000000000000000000000000000000000000000000000000000081526004016114e39190611f02565b60405180910390fd5b565b60008060009054906101000a900473ffffffffffffffffffffffffffffffffffffffff169050816000806101000a81548173ffffffffffffffffffffffffffffffffffffffff021916908373ffffffffffffffffffffffffffffffffffffffff1602179055508173ffffffffffffffffffffffffffffffffffffffff168173ffffffffffffffffffffffffffffffffffffffff167f8be0079c531659141344cd1fd0a4f28419497f9722a3daafe3b4186f6b6457e060405160405180910390a35050565b6002600154036115ee576040517f3ee5aeb500000000000000000000000000000000000000000000000000000000815260040160405180910390fd5b6002600181905550565b6000600280549050905082611699576000811161164a576040517f08c379a000000000000000000000000000000000000000000000000000000000815260040161164190612530565b60405180910390fd5b83851080156116595750808411155b611698576040517f08c379a000000000000000000000000000000000000000000000000000000000815260040161168f9061259c565b60405180910390fd5b5b60008773ffffffffffffffffffffffffffffffffffffffff166370a08231306040518263ffffffff1660e01b81526004016116d49190611f02565b602060405180830381865afa1580156116f1573d6000803e3d6000fd5b505050506040513d601f19601f8201168201806040525081019061171591906125d1565b90506000811161175a576040517f08c379a00000000000000000000000000000000000000000000000000000000081526004016117519061264a565b60405180910390fd5b83156118e0576000600360008573ffffffffffffffffffffffffffffffffffffffff1673ffffffffffffffffffffffffffffffffffffffff16815260200190815260200160002090508060030160009054906101000a900460ff166117f4576040517f08c379a00000000000000000000000000000000000000000000000000000000081526004016117eb906126b6565b60405180910390fd5b60008861180557816002015461180b565b81600101545b905060008114806118295750600554816118259190612193565b4210155b611868576040517f08c379a000000000000000000000000000000000000000000000000000000000815260040161185f90612722565b60405180910390fd5b600061271083600001548561187d9190612742565b61188791906127b3565b9050600081116118cc576040517f08c379a00000000000000000000000000000000000000000000000000000000081526004016118c390612830565b60405180910390fd5b6118d88b8b8884611a12565b5050506119f7565b60008690505b858110156119f557600060028281548110611904576119036120c9565b5b9060005260206000200160009054906101000a900473ffffffffffffffffffffffffffffffffffffffff1690506000600360008373ffffffffffffffffffffffffffffffffffffffff1673ffffffffffffffffffffffffffffffffffffffff168152602001908152602001600020905060006127108260000154866119899190612742565b61199391906127b3565b905060008b6119a65782600201546119ac565b82600101545b905060008114806119ca5750600554816119c69190612193565b4210155b156119e65760008211156119e5576119e48d8d8685611a12565b5b5b846001019450505050506118e6565b505b5050505050505050565b60018081905550565b600033905090565b611a3d82828673ffffffffffffffffffffffffffffffffffffffff16611b429092919063ffffffff16565b8215611a8f5742600360008473ffffffffffffffffffffffffffffffffffffffff1673ffffffffffffffffffffffffffffffffffffffff16815260200190815260200160002060010181905550611ad7565b42600360008473ffffffffffffffffffffffffffffffffffffffff1673ffffffffffffffffffffffffffffffffffffffff168152602001908152602001600020600201819055505b8373ffffffffffffffffffffffffffffffffffffffff168273ffffffffffffffffffffffffffffffffffffffff167f6b8ce2a88df16b2e7e1133c8bd77cc5cf3411baf1642a32abc38fc0464fc553c83604051611b349190611d80565b60405180910390a350505050565b611bbc838473ffffffffffffffffffffffffffffffffffffffff1663a9059cbb8585604051602401611b75929190612850565b604051602081830303815290604052915060e01b6020820180517bffffffffffffffffffffffffffffffffffffffffffffffffffffffff8381831617835250505050611bc1565b505050565b600080602060008451602086016000885af180611be4576040513d6000823e3d81fd5b3d925060005191505060008214611bff576001811415611c1b565b60008473ffffffffffffffffffffffffffffffffffffffff163b145b15611c5d57836040517f5274afe7000000000000000000000000000000000000000000000000000000008152600401611c549190611f02565b60405180910390fd5b50505050565b600080fd5b60008115159050919050565b611c7d81611c68565b8114611c8857600080fd5b50565b600081359050611c9a81611c74565b92915050565b600060208284031215611cb657611cb5611c63565b5b6000611cc484828501611c8b565b91505092915050565b600073ffffffffffffffffffffffffffffffffffffffff82169050919050565b6000819050919050565b6000611d12611d0d611d0884611ccd565b611ced565b611ccd565b9050919050565b6000611d2482611cf7565b9050919050565b6000611d3682611d19565b9050919050565b611d4681611d2b565b82525050565b6000602082019050611d616000830184611d3d565b92915050565b6000819050919050565b611d7a81611d67565b82525050565b6000602082019050611d956000830184611d71565b92915050565b6000611da682611ccd565b9050919050565b611db681611d9b565b8114611dc157600080fd5b50565b600081359050611dd381611dad565b92915050565b600060208284031215611def57611dee611c63565b5b6000611dfd84828501611dc4565b91505092915050565b611e0f81611c68565b82525050565b6000608082019050611e2a6000830187611d71565b611e376020830186611d71565b611e446040830185611d71565b611e516060830184611e06565b95945050505050565b611e6381611d67565b8114611e6e57600080fd5b50565b600081359050611e8081611e5a565b92915050565b60008060408385031215611e9d57611e9c611c63565b5b6000611eab85828601611dc4565b9250506020611ebc85828601611e71565b9150509250929050565b600060208284031215611edc57611edb611c63565b5b6000611eea84828501611e71565b91505092915050565b611efc81611d9b565b82525050565b6000602082019050611f176000830184611ef3565b92915050565b6000602082019050611f326000830184611e06565b92915050565b6000608082019050611f4d6000830187611ef3565b611f5a6020830186611d71565b611f676040830185611d71565b611f746060830184611d71565b95945050505050565b600082825260208201905092915050565b7f436f6e7472616374206973206c6f636b65640000000000000000000000000000600082015250565b6000611fc4601283611f7d565b9150611fcf82611f8e565b602082019050919050565b60006020820190508181036000830152611ff381611fb7565b9050919050565b7f4e6f7420666f756e640000000000000000000000000000000000000000000000600082015250565b6000612030600983611f7d565b915061203b82611ffa565b602082019050919050565b6000602082019050818103600083015261205f81612023565b9050919050565b7f4e487b7100000000000000000000000000000000000000000000000000000000600052601160045260246000fd5b60006120a082611d67565b91506120ab83611d67565b92508282039050818111156120c3576120c2612066565b5b92915050565b7f4e487b7100000000000000000000000000000000000000000000000000000000600052603260045260246000fd5b7f4e487b7100000000000000000000000000000000000000000000000000000000600052603160045260246000fd5b7f5368617265206d757374203e2030000000000000000000000000000000000000600082015250565b600061215d600e83611f7d565b915061216882612127565b602082019050919050565b6000602082019050818103600083015261218c81612150565b9050919050565b600061219e82611d67565b91506121a983611d67565b92508282019050808211156121c1576121c0612066565b5b92915050565b7f546f74616c207368617265732065786365656420313030303000000000000000600082015250565b60006121fd601983611f7d565b9150612208826121c7565b602082019050919050565b6000602082019050818103600083015261222c816121f0565b9050919050565b60006040820190506122486000830185611d71565b6122556020830184611d71565b9392505050565b7f496e76616c696420696e74657276616c00000000000000000000000000000000600082015250565b6000612292601083611f7d565b915061229d8261225c565b602082019050919050565b600060208201905081810360008301526122c181612285565b9050919050565b7f446973747269627574696f6e2070617573656400000000000000000000000000600082015250565b60006122fe601383611f7d565b9150612309826122c8565b602082019050919050565b6000602082019050818103600083015261232d816122f1565b9050919050565b7f746f74616c536861726573206d75737420626520313030303000000000000000600082015250565b600061236a601983611f7d565b915061237582612334565b602082019050919050565b600060208201905081810360008301526123998161235d565b9050919050565b7f496e76616c69642077616c6c6574000000000000000000000000000000000000600082015250565b60006123d6600e83611f7d565b91506123e1826123a0565b602082019050919050565b60006020820190508181036000830152612405816123c9565b9050919050565b7f42656e6566696369617279206578697374730000000000000000000000000000600082015250565b6000612442601283611f7d565b915061244d8261240c565b602082019050919050565b6000602082019050818103600083015261247181612435565b9050919050565b7f496e646578204f4f420000000000000000000000000000000000000000000000600082015250565b60006124ae600983611f7d565b91506124b982612478565b602082019050919050565b600060208201905081810360008301526124dd816124a1565b9050919050565b7f4e6f2062656e6566696369617269657300000000000000000000000000000000600082015250565b600061251a601083611f7d565b9150612525826124e4565b602082019050919050565b600060208201905081810360008301526125498161250d565b9050919050565b7f4261642072616e67650000000000000000000000000000000000000000000000600082015250565b6000612586600983611f7d565b915061259182612550565b602082019050919050565b600060208201905081810360008301526125b581612579565b9050919050565b6000815190506125cb81611e5a565b92915050565b6000602082840312156125e7576125e6611c63565b5b60006125f5848285016125bc565b91505092915050565b7f4e6f2066756e6473000000000000000000000000000000000000000000000000600082015250565b6000612634600883611f7d565b915061263f826125fe565b602082019050919050565b6000602082019050818103600083015261266381612627565b9050919050565b7f4e6f7420612062656e6566696369617279000000000000000000000000000000600082015250565b60006126a0601183611f7d565b91506126ab8261266a565b602082019050919050565b600060208201905081810360008301526126cf81612693565b9050919050565b7f546f6f20736f6f6e20746f20636c61696d000000000000000000000000000000600082015250565b600061270c601183611f7d565b9150612717826126d6565b602082019050919050565b6000602082019050818103600083015261273b816126ff565b9050919050565b600061274d82611d67565b915061275883611d67565b925082820261276681611d67565b9150828204841483151761277d5761277c612066565b5b5092915050565b7f4e487b7100000000000000000000000000000000000000000000000000000000600052601260045260246000fd5b60006127be82611d67565b91506127c983611d67565b9250826127d9576127d8612784565b5b828204905092915050565b7f416d6f756e74207a65726f000000000000000000000000000000000000000000600082015250565b600061281a600b83611f7d565b9150612825826127e4565b602082019050919050565b600060208201905081810360008301526128498161280d565b9050919050565b60006040820190506128656000830185611ef3565b6128726020830184611d71565b939250505056fea2646970667358221220c2968ce667ca9822eadbcb3f84652d0fa94764dc2da2597be3936a4fef3994b664736f6c634300081c0033",
  "linkReferences": {},
  "deployedLinkReferences": {}
}